:100000000C9434000C9449000C9449000C94490061
:100010000C9449000C9449000C9449000C9449003C
:100020000C9449000C9449000C9449000C9449002C
:100030000C9449000C9449000C9449000C9449001C
:100040000C9449000C9449000C9449000C9449000C
:100050000C9449000C9449000C9449000C944900FC
:100060000C9449000C94490011241FBECFEFD8E036
:10007000DEBFCDBF11E0A0E0B1E0EEECF6E002C0E3
:1000800005900D92A830B107D9F70E94CF000C94CB
:1000900065030C94000084B18E6084B98AB18860D5
:1000A0008AB982EA809380008AE1809381008FE39D
:1000B0009CE9909387008093860083EA8093B00048
:1000C00087E08093B100089580E480937C0087E806
:1000D00080937A000895ECE7F0E09081907F8F7034
:1000E000892B8083EAE7F0E08081806480838091BF
:1000F0007A0086FDFCCF8091780090917900089578
:10010000809106019091070127E030E0B9010E943B
:100110003D036A5F6093B4008091040190910501F2
:10012000B9010E943D036A5F6093B30060910201D0
:1001300070910301072E000C880B990B0E9444025A
:100140002FE832EC41E351E40E94D00220E030E09D
:100150004AEF54E40E94A7010E94130270938B009F
:1001600060938A006091000170910101072E000CDC
:10017000880B990B0E9444022FE832EC41E351E4D2
:100180000E94D00220E030E04AEF54E40E94A70130
:100190000E941302709389006093880008950E9462
:1001A0004B000E9464000E9480002FEF89E698E1D6
:1001B000215080409040E1F700C0000083E00E94A1
:1001C0006B007C0184E00E946B008C0180E00E9447
:1001D0006B00EC0181E00E946B0029E5E21622E051
:1001E000F206A0F020910601309107012F5F3F4FEA
:1001F0003093070120930601253B3105E4F024EB01
:1002000030E0309307012093060115C020E9E21683
:1002100021E0F20680F4209106013091070121507F
:1002200031093093070120930601332324F41092FF
:10023000070110920601093522E01207A0F0209173
:100240000401309105012F5F3F4F3093050120934A
:100250000401253B3105D4F024EB30E03093050157
:100260002093040113C00039114080F4209104014F
:10027000309105012150310930930501209304018B
:10028000332324F41092050110920401C93522E0B1
:10029000D207A0F020910201309103012F5F3F4F60
:1002A0003093030120930201253B3105D4F024EB68
:1002B00030E0309303012093020113C0C039D140D4
:1002C00080F42091020130910301215031093093D3
:1002D000030120930201332324F4109203011092AE
:1002E0000201893522E0920798F0809100019091F7
:1002F000010101969093010180930001853B9105D6
:10030000CCF084EB90E0909301018093000112C047
:100310008039914078F4809100019091010101971A
:100320009093010180930001992324F4109201011C
:10033000109200010E9480008FEF99EF20E0815021
:1003400090402040E1F700C0000038CF5058BB2754
:10035000AA270E94BE010C9496020E94880238F0DF
:100360000E948F0220F039F49F3F19F426F40C9478
:1003700085020EF4E095E7FB0C947F02E92F0E94C2
:10038000A70258F3BA17620773078407950720F08E
:1003900079F4A6F50C94C9020EF4E0950B2EBA2F51
:1003A000A02D0B01B90190010C01CA01A00111247B
:1003B000FF27591B99F0593F50F4503E68F11A1627
:1003C000F040A22F232F342F4427585FF3CF4695B8
:1003D00037952795A795F0405395C9F77EF41F16DA
:1003E000BA0B620B730B840BBAF09150A1F0FF0FA4
:1003F000BB1F661F771F881FC2F70EC0BA0F621F90
:10040000731F841F48F4879577956795B795F7957F
:100410009E3F08F0B0CF9395880F08F09927EE0F14
:100420009795879508950E94AF0288F09F5798F09E
:10043000B92F9927B751B0F0E1F0660F771F881FE9
:10044000991F1AF0BA95C9F714C0B13091F00E9403
:10045000C902B1E008950C94C902672F782F88274C
:10046000B85F39F0B93FCCF3869577956795B3952A
:10047000D9F73EF490958095709561957F4F8F4F99
:100480009F4F0895E89409C097FB3EF4909580959E
:10049000709561957F4F8F4F9F4F9923A9F0F92F4A
:1004A00096E9BB279395F695879577956795B795C8
:1004B000F111F8CFFAF4BB0F11F460FF1BC06F5FAE
:1004C0007F4F8F4F9F4F16C0882311F096E911C0C0
:1004D000772321F09EE8872F762F05C0662371F0E1
:1004E00096E8862F70E060E02AF09A95660F771FF5
:1004F000881FDAF7880F9695879597F9089597F9E9
:100500009F6780E870E060E008959FEF80EC0895B9
:1005100000240A94161617061806090608950024E2
:100520000A9412161306140605060895092E03945C
:10053000000C11F4882352F0BB0F40F4BF2B11F4D0
:1005400060FF04C06F5F7F4F8F4F9F4F089557FD2F
:100550009058440F551F59F05F3F71F04795880F31
:1005600097FB991F61F09F3F79F0879508951216C8
:1005700013061406551FF2CF4695F1DF08C0161674
:1005800017061806991FF1CF869571056105089425
:100590000895E894BB2766277727CB0197F908953C
:1005A0000E94E3020C9496020E94880238F00E9496
:1005B0008F0220F0952311F00C947F020C94850299
:1005C00011240C94CA020E94A70270F3959FC1F3F4
:1005D000950F50E0551F629FF001729FBB27F00DF1
:1005E000B11D639FAA27F00DB11DAA1F649F662746
:1005F000B00DA11D661F829F2227B00DA11D621F95
:10060000739FB00DA11D621F839FA00D611D221F4E
:10061000749F3327A00D611D231F849F600D211D32
:10062000822F762F6A2F11249F5750409AF0F1F0B5
:1006300088234AF0EE0FFF1FBB1F661F771F881F1E
:1006400091505040A9F79E3F510580F00C947F02D5
:100650000C94CA025F3FE4F3983ED4F386957795F5
:100660006795B795F795E7959F5FC1F7FE2B880FC4
:10067000911D9695879597F9089597FB072E16F487
:10068000009407D077FD09D00E94510307FC05D0E4
:100690003EF4909581959F4F0895709561957F4F99
:1006A0000895AA1BBB1B51E107C0AA1FBB1FA617B9
:1006B000B70710F0A61BB70B881F991F5A95A9F70B
:0E06C00080959095BC01CD010895F894FFCF70
:0806CE005A005A005A005A00BC
:00000001FF
