S016000050726F796563746F5F4272617A6F2E737265635C
S11300000C943A000C9457000C9457000C9457002D
S11300100C9457000C9457000C9457000C94570000
S11300200C9457000C9457000C9457000C945700F0
S11300300C9457000C9457000C9457000C945700E0
S11300400C9457000C9457000C9457000C945700D0
S11300500C9457000C9457000C9457000C945700C0
S11300600C9457000C9457006364696E6F70737539
S113007078585B0011241FBECFEFD8E0DEBFCDBFA0
S113008012E0A0E0B1E0E4E8F3E102C005900D92D3
S1130090A031B107D9F722E0A0E1B2E001C01D927E
S11300A0A433B207E1F70E94AF010C94C0090C9489
S11300B00000CF9380E090E00E947309C82F8093E2
S11300C0120281E090E00E94730980931002C5300F
S11300D010F010921202843010F010921002CF919E
S11300E008950F931F93CF93DF93C0911002D0E034
S11300F0CC0FDD1FCC0FDD1F8E010E5F1F4F6091F3
S11301000601C8010E947B0960910401CE01039697
S11301100E947B0960910201C80102960E947B093A
S113012060910001CE0105960E947B096091100246
S113013070E06F5F7F4F63707078772334F46150A1
S113014071096C6F7F6F6F5F7F4F6093100281E066
S113015090E00E947B0960911202643038F46F5F72
S11301606093120280E090E00E947B098BB18F7D46
S11301708BB92FEF87EE93E0215080409040E1F758
S113018000C000008BB180628BB9DF91CF911F91C9
S11301900F910895CF92DF92EF92FF920F931F93E6
S11301A0CF93DF9380911202882309F4BBC0C090DF
S11301B01102D12CCC0CDD1CCC0CDD1C760122E010
S11301C0E20EF11CC7010E947309C82FD0E0C601DA
S11301D003960E947309082F10E0C70102960E943B
S11301E07309E82EF12CC60105960E947309C82EE6
S11301F0D12C5CC0329BAAC02C173D073CF42F5F66
S11302003F4F309307012093060109C0C217D3075B
S113021034F4215031093093070120930601809171
S11302200401909105018017910734F4019690938D
S113023005018093040108C0081719072CF40197DD
S11302409093050180930401809102019091030130
S11302508E159F0534F40196909303018093020157
S113026008C0E816F9062CF40197909303018093D3
S1130270020180910001909101018C159D0534F4D7
S11302800196909301018093000108C0C816D90615
S11302902CF4019790930101809300010E945C0368
S11302A08FE59AEE0197F1F700C000002091060156
S11302B030910701C217D30709F09CCF8091040144
S11302C0909105010817190709F094CF8091020154
S11302D090910301E816F90609F08CCF8091000192
S11302E090910101C816D90609F084CF80E00CC0B2
S11302F0329B2CC09FE728E331E0915020403040EE
S1130300E1F700C000008F5F883290F38091110202
S11303108F5F80931102909112028917B8F01092A6
S1130320110214C08AE590E09093070180930601BE
S1130330909305018093040190930301809302013B
S113034090930101809300010E945C03DF91CF919F
S11303501F910F91FF90EF90DF90CF9008950E942E
S113036015030E94310387E690E00E94CA038AE5E0
S113037090E0909307018093060190930501809388
S113038004019093030180930201909301018093EF
S113039000010E945C0380E00E94B5032FEF8BE410
S11303A09DE1215080409040E1F700C000000E9490
S11303B0590088E091E00E94DC0332993EC02FEF9F
S11303C080E792E0215080409040E1F700C00000B7
S11303D0329933C080911302811108C081E0809367
S11303E0130281E491E00E94DC0312C0813041F4E5
S11303F082E08093130289E591E00E94DC0308C047
S1130400823031F4109213028DE791E00E94DC03F4
S1130410809113020E94B5031092110210921502EA
S113042010921402329BFECF2FEF80E792E021500E
S113043080409040E1F700C000000E94E9038091F1
S11304401302813009F4DAC020F0823009F4D9C0F3
S1130450E2C080E00E943E038C0181E00E943E03E2
S1130460EC0183E00E943E037C0184E00E943E0391
S113047029E5E21622E0F206A0F02091060130916F
S113048007012F5F3F4F3093070120930601253B5F
S11304903105E4F024EB30E03093070120930601AA
S11304A015C020E9E21621E0F20680F4209106014D
S11304B0309107012150310930930701209306013F
S11304C0332324F41092070110920601893522E0A7
S11304D0920798F080910401909105010196909300
S11304E0050180930401853B9105CCF084EB90E0F9
S11304F0909305018093040112C08039914078F4EF
S113050080910401909105010197909305018093D6
S11305100401992324F41092050110920401093571
S113052082E0180798F080910201909103010196EE
S11305309093030180930201853B9105CCF084EBF9
S113054090E0909303018093020112C0003911409E
S113055078F4809102019091030101979093030133
S113056080930201992324F4109203011092020152
S1130570C93522E0D20798F08091000190910101E1
S113058001969093010180930001853B9105CCF085
S113059084EB90E0909301018093000112C0C03974
S11305A0D14078F4809100019091010101979093DA
S11305B0010180930001992324F410920101109207
S11305C000010E945C03359926C09FEF20E782E07A
S11305D0915020408040E1F700C0000035991BC0D5
S11305E00E947100359BFECF9FEF20E782E091507F
S11305F020408040E1F700C000000DC00E94CA0006
S11306000AC080911402882331F00E9420041092C1
S11306101502109214029FEF29EF80E091502040C0
S11306208040E1F700C00000C8CE84B18E6084B978
S11306308AB188608AB98AB1806E8AB982EA809365
S113064080008AE1809381008FE39CE99093870086
S11306508093860083EA8093B00087E08093B100A2
S1130660089580E480937C0087E880937A0087B1C2
S11306708B7D87B988B1846288B90895ECE7F0E08E
S11306809081907F8F70892B8083EAE7F0E08081EE
S11306908064808380917A0086FDFCCFEAE7F0E0F5
S11306A080818064808380917A0086FDFCCF809174
S11306B078009091790008954091060150910701C6
S11306C026E1249FC001259F900D1124E4EBF0E066
S11306D0BF010E941706665F608340910401509138
S11306E00501249FC001259F900D1124BF010E9484
S11306F01706665F6093B300609102017091030175
S1130700072E000C880B990B0E941E052FE832EC73
S113071041E351E40E94AA0520E030E04AEF54E4AA
S11307200E9481040E94ED0470938B0060938A0000
S11307306091000170910101072E000C880B990B48
S11307400E941E052FE832EC41E351E40E94AA0501
S113075020E030E04AEF54E40E9481040E94ED045A
S1130760709389006093880008959BB19F719BB931
S1130770811104C08BB180628BB90895813021F45A
S11307808BB180648BB90895823019F48BB1806881
S11307908BB908959093C5008093C40088E1809339
S11307A0C10086E08093C20008959091C00095FF37
S11307B0FCCF8093C6000895CF93DF93EC0103C070
S11307C021960E94D50388818111FACFDF91CF91C0
S11307D008958091C000882394F58091C6008A30E2
S11307E011F08D3061F4E0911502EE2341F1F0E057
S11307F0EA5EFD4F108281E08093140208958332F3
S113080061F4E0911502E53040F0F0E0EA5EFD4F5E
S1130810108281E0809314020895833221F4909130
S11308201502992361F0E0911502ED3140F491E055
S11308309E0F90931502F0E0EA5EFD4F80830895C9
S1130840CF93DF93CDB7DEB728970FB6F894DEBF0A
S11308500FBECDBFCE0107969F938F9302979F93B0
S11308608F9302979F938F9302979F938F9385E91A
S113087091E09F938F9386E192E09F938F930E94E0
S11308803F060FB6F894DEBF0FBECDBF049759F5EF
S113089089819A81853B910520F490930701809387
S11308A006018B819C81853B910520F49093050181
S11308B0809304018D819E81853B910520F4909362
S11308C00301809302018F819885853B910520F473
S11308D090930101809300010E945C0381EA91E0FE
S11308E00E94DC0304C08BEC91E00E94DC03289698
S11308F00FB6F894DEBF0FBECDBFDF91CF91089540
S11309005058BB27AA270E9498040C9470050E9493
S1130910620538F00E94690520F039F49F3F19F40C
S113092026F40C945F050EF4E095E7FB0C9459054E
S1130930E92F0E94810558F3BA17620773078407E9
S1130940950720F079F4A6F50C94A3050EF4E09530
S11309500B2EBA2FA02D0B01B90190010C01CA0175
S1130960A0011124FF27591B99F0593F50F4503E20
S113097068F11A16F040A22F232F342F4427585F12
S1130980F3CF469537952795A795F0405395C9F72A
S11309907EF41F16BA0B620B730B840BBAF09150E2
S11309A0A1F0FF0FBB1F661F771F881FC2F70EC081
S11309B0BA0F621F731F841F48F487957795679554
S11309C0B795F7959E3F08F0B0CF9395880F08F040
S11309D09927EE0F9795879508950E94890588F0C9
S11309E09F5798F0B92F9927B751B0F0E1F0660FEF
S11309F0771F881F991F1AF0BA95C9F714C0B13030
S1130A0091F00E94A305B1E008950C94A305672F0B
S1130A10782F8827B85F39F0B93FCCF3869577955E
S1130A206795B395D9F73EF4909580957095619547
S1130A307F4F8F4F9F4F0895E89409C097FB3EF472
S1130A4090958095709561957F4F8F4F9F4F992317
S1130A50A9F0F92F96E9BB279395F6958795779595
S1130A606795B795F111F8CFFAF4BB0F11F460FF55
S1130A701BC06F5F7F4F8F4F9F4F16C0882311F0AD
S1130A8096E911C0772321F09EE8872F762F05C0C1
S1130A90662371F096E8862F70E060E02AF09A955C
S1130AA0660F771F881FDAF7880F9695879597F951
S1130AB0089597F99F6780E870E060E008959FEFDC
S1130AC080EC089500240A941616170618060906E1
S1130AD0089500240A9412161306140605060895B0
S1130AE0092E0394000C11F4882352F0BB0F40F438
S1130AF0BF2B11F460FF04C06F5F7F4F8F4F9F4F78
S1130B00089557FD9058440F551F59F05F3F71F0F9
S1130B104795880F97FB991F61F09F3F79F0879560
S1130B200895121613061406551FF2CF4695F1DFE9
S1130B3008C0161617061806991FF1CF8695710579
S1130B40610508940895E894BB2766277727CB01AD
S1130B5097F908950E94BD050C9470050E946205E2
S1130B6038F00E94690520F0952311F00C94590582
S1130B700C945F0511240C94A4050E94810570F364
S1130B80959FC1F3950F50E0551F629FF001729F2E
S1130B90BB27F00DB11D639FAA27F00DB11DAA1F3D
S1130BA0649F6627B00DA11D661F829F2227B00D8A
S1130BB0A11D621F739FB00DA11D621F839FA00D15
S1130BC0611D221F749F3327A00D611D231F849F65
S1130BD0600D211D822F762F6A2F11249F575040BC
S1130BE09AF0F1F088234AF0EE0FFF1FBB1F661F37
S1130BF0771F881F91505040A9F79E3F510580F000
S1130C000C9459050C94A4055F3FE4F3983ED4F387
S1130C10869577956795B795F795E7959F5FC1F7A3
S1130C20FE2B880F911D9695879597F9089597FB4C
S1130C30072E16F4009407D077FD09D00E942B06E6
S1130C4007FC05D03EF4909581959F4F08957095CB
S1130C5061957F4F0895AA1BBB1B51E107C0AA1FD2
S1130C60BB1FA617B70710F0A61BB70B881F991F49
S1130C705A95A9F780959095BC01CD010895AEE0F1
S1130C80B0E0E5E4F6E00C94990985E08C838B8967
S1130C909C899A838983AE01495E5F4F6D897E8901
S1130CA0CE0101960E94F4072E96E2E00C94B50959
S1130CB020FD09C0FC0123FD05C022FF02C073838F
S1130CC0628351834083089544FD17C046FD17C0D5
S1130CD0AB01BC01DA01FB01AA0FBB1FEE1FFF1F12
S1130CE01094D1F74A0F5B1F6E1F7F1FCB01BA010F
S1130CF0660F771F881F991F09C033E001C034E0D5
S1130D00660F771F881F991F3150D1F7620F711D2D
S1130D10811D911D08950F931F93CF93DF938C0131
S1130D20C8010E941909EC0197FD08C00E94050939
S1130D30892BB1F7B801CE010E945709CE01DF918A
S1130D40CF911F910F9108958F929F92AF92BF926E
S1130D50EF92FF920F931F93CF93DF938C01D62FC3
S1130D607A01B22E0E9419099C0133272B323105D6
S1130D7031F02D32310561F48B2D8068B82ED150BD
S1130D8011F480E068C0C8010E94190997FDF9CFE9
S1130D90CB2DCD7F2B2D207309F58033F9F4AA24B4
S1130DA0AA94AD0E09F443C0C8010E94190997FD25
S1130DB03EC09C012F7D33272835310549F4C26498
S1130DC0D250A9F1C8010E94190997FF07C02FC08A
S1130DD0B6FE02C0C26001C0C261DA2D812C912C22
S1130DE0540120ED280F283080F0C4FF04C0B8015E
S1130DF00E94570919C02A3040F0C6FFF8CF2F7D52
S1130E003FEE320F363098F727504C2FC501B4010E
S1130E100E9464064B015C01C260D15059F0C801C4
S1130E200E94190997FFDDCFC1FD04C0AACF812C10
S1130E30912C5401C7FF08C0B094A094909480945E
S1130E40811C911CA11CB11C2C2FB501A401C7014C
S1130E500E94580681E0DF91CF911F910F91FF907E
S1130E60EF90BF90AF909F908F900895A0E2B0E074
S1130E70ECE3F7E00C948C095C01962E7A01F901FD
S1130E808E010F5F1F4F680180E2D8011D928A9581
S1130E90E9F7D50113968C9080E090E0612C712CD9
S1130EA030E061E070E083FC259183FE21918F01A5
S1130EB0522E211103C080E090E092C02E3511F42F
S1130EC0009751F1432F50E0481759073CF42D3552
S1130ED059F12D3219F4772009F103C0772009F470
S1130EE06AC0452D469546954695D601A40FB11D79
S1130EF0452D47708B0102C0000F111F4A95E2F780
S1130F00A8015C91452B4C93651459F0561410F4C8
S1130F105394E7CF5A94E5CF31E004C07724739417
S1130F2001C0712C0196BFCF772019F08E818062A9
S1130F308E83311103C08824839417C0F6019E0167
S1130F402F5D3F4F8081809581932E173F07D1F706
S1130F50F2CFE114F10429F0D7018C93F701319613
S1130F607F019A94812C9920F9F0C5010E941909F6
S1130F7097FD18C0FC01FF2723E0F595E7952A9516
S1130F80E1F7EC0DFD1D208130E0AC0147705527E1
S1130F9002C0359527954A95E2F720FDDACFB501D1
S1130FA00E945709811087CFE114F10411F0D70191
S1130FB01C92C80115C0422F469546954695D60108
S1130FC0A40FB11D422F47708B0102C0000F111FE7
S1130FD04A95E2F7A8015C91452B4C93622EA2CF6F
S1130FE0A096EFE00C94A809A0E0B0E0EAEFF7E0E7
S1130FF00C948C096C01EB015A01FC0117821682D6
S1131000512CF601E380FE01E3FC8591E3FE81911E
S1131010182FEF01882309F4EEC090E00E9405091F
S1131020892B21F0C6010E948B06EBCF153241F4C7
S1131030FE01E3FC1591E3FE1191EF01153281F4F9
S1131040C6010E94190997FDD4C0412F50E09C01AC
S1131050332724173507A9F2B6010E945709CBC0DC
S11310601A3239F4E3FC1591E3FE1191EF0101E02A
S113107001C000E0F12C20ED210F2A3080F4026041
S11310806F2D70E080E090E040E20E946406F62E4E
S1131090FE01E3FC1591E3FE1191EF01ECCF01FF9A
S11310A003C0F11003C0A7C0FF24FA94183619F046
S11310B01C3651F010C0FE01E3FC1591E3FE1191C2
S11310C0EF01183641F408600460FE01E3FC159159
S11310D0E3FE1191EF01112309F48DC0612F70E03B
S11310E088E690E00E940E09892B09F484C000FD73
S11310F007C0F50180809180C50102965C0102C0A1
S1131100812C912C1E3651F4F6014681578160E002
S113111070E0202FC4010E94580673CF1336A9F43F
S113112001FD02C0FF24F394C6010E94190997FD32
S113113060C08114910429F0F4018083C4010196F4
S11311404C01FA94F110F0CF50C01B3559F49E01B4
S1131150A4016F2DC6010E943607EC01892B09F00A
S113116044C03EC0C6010E948B0697FD42C01F3694
S113117061F128F4143639F1193651F128C01337C6
S113118071F0153701F123C08114910429F0F401A1
S11311906082C40101964C01FA94FF2071F0C601EB
S11311A00E9419093C0197FD08C00E940509892B7A
S11311B059F3B601C3010E94570981149104A9F09F
S11311C0F401108212C0006203C0006101C0006417
S11311D0202FA4016F2DC6010E94A406811105C011
S11311E0F6018381807329F406C000FD0ACF53946D
S11311F008CF552019F0852D90E002C08FEF9FEFA6
S1131200CDB7DEB7EFE00C94A80991110C947009E6
S1131210803219F089508550C8F70895FC01059073
S1131220061621F00020D9F7C00108953197CF01A7
S11312300895CF93DF93EC012B8120FF33C026FF69
S11312400AC02F7B2B838E819F8101969F838E837F
S11312508A8190E029C022FF0FC0E881F981808152
S1131260082E000C990B009719F420622B831AC0E6
S11312703196F983E8830EC0EA85FB85099597FFCB
S113128009C02B81019611F080E201C080E1822B1C
S11312908B8308C02E813F812F5F3F4F3F832E8376
S11312A0992702C08FEF9FEFDF91CF910895FB0143
S11312B0238120FF12C026FD10C08F3F3FEF93070C
S11312C061F082832F7D206423832681378121501E
S11312D0310937832683992708958FEF9FEF089567
S11312E0992788270895F999FECF92BD81BDF89A70
S11312F0992780B50895262FF999FECF1FBA92BD7C
S113130081BD20BD0FB6F894FA9AF99A0FBE0196E2
S113131008952F923F924F925F926F927F928F9295
S11313209F92AF92BF92CF92DF92EF92FF920F9370
S11313301F93CF93DF93CDB7DEB7CA1BDB0B0FB67A
S1131340F894DEBF0FBECDBF09942A883988488837
S11313505F846E847D848C849B84AA84B984C884CD
S1131360DF80EE80FD800C811B81AA81B981CE0FC4
S1131370D11D0FB6F894DEBF0FBECDBFED010895A9
S1071380F894FFCF0B
S11313845A005A005A005A0053697374656D6120F7
S1131394496E696369616C697A61646F204D6F6435
S11313A4756C61726D656E74652E204D6F646F206B
S11313B44D616E75616C2041637469766F2E0D0AFC
S11313C40043616D62696F20613A204D4F444F20A0
S11313D4454550524F4D0D0A0043616D62696F20BB
S11313E4613A204D4F444F205541525420284164C2
S11313F461667275697420494F290D0A0043616D51
S113140462696F20613A204D4F444F204D414E553F
S1131414414C0D0A0025642C25642C25642C256478
S11314240041434B3A204D6F746F72657320706FA3
S1131434736963696F6E61646F7320636F7272653D
S11314446374616D656E74650D0A004552523A20E9
S1131454466F726D61746F20696E76616C69646F36
S11314642E205573653A20414E47312C414E473264
S11314742C414E47332C414E47342028456A3A20A8
S113148439302C34352C3138302C30290D0A0000F5
S9030000FC
